:1000000010C02AC029C028C08BC0C2C025C024C0CF
:1000100023C022C021C020C01FC01EC01DC01CC0E4
:100020001BC011241FBECFE5D2E0DEBFCDBF10E064
:10003000A0E6B0E0E0E4F3E002C005900D92A03845
:10004000B107D9F710E0A0E8B0E001C01D92A638D2
:10005000B107E1F7B6D072C1D3CF809181006AE0D9
:1000600061D1A6E7B0E0FD01E80FF11D808188BBFA
:100070008091810057D1A90FB11D8C9182BB089549
:10008000823061F0833018F4813081F405C084300F
:1000900039F0883059F408C08CE303C08EE101C008
:1000A0008AE08093810003C085E0FBCF8111D5DF1A
:1000B0000895CF93DF93EA018032D9F439983A98C2
:1000C00044E050E0E1E0F0E025B3CF01042E02C0AF
:1000D000880F991F0A94E2F78095822385BB4F5FB2
:1000E0005F4F4830510581F760938100B6DF81E0B2
:1000F0008883DF91CF910895823061F0833018F4C6
:10010000813069F405C0843039F0883041F406C08C
:10011000AC9A0895AD9A0895AE9A0895AF9A08954D
:100120001F920F920FB60F9211248F939F9380917D
:100130008300813031F1809181008823F9F0809132
:100140008400909185008336910571F410928500AA
:1001500010928400809181008093820080918100C0
:100160008150809381000DC0809184009091850022
:100170000196909385008093840003C081E0809372
:1001800083009F918F910F900FBE0F901F90189535
:100190001F920F920FB60F9211248F9380918000BF
:1001A000882331F08091800081508093800003C0CB
:1001B00083B78F7E83BF8F910F900FBE0F901F90DC
:1001C00018956F927F928F929F92AF92BF92CF922B
:1001D000DF92EF92FF920F931F93DF93CF930F92D3
:1001E000CDB7DEB71ABA8FEF8BBB87BB18BA80EFDB
:1001F00084BB8FE085BB9EEF91BB81E088BB96B945
:1002000087B988E083BF83B7826083BF12BE89E06D
:100210008EBD1DBC1CBC15BC14BC87E28BBD80E12F
:100220008ABD19BC18BC80E689BF789491E0998397
:100230008CE380938100909383000FDF6CE3F62EB4
:100240005E010894A11CB11C9924939459E1652E78
:1002500044E6D42E32E0E32E26E9722E98ECC92E25
:1002600082E3882E09B3009513B310951F7089811E
:10027000813031F0813028F1823009F051C04BC01B
:10028000802FFEDE003189F4399AC1BE8092800051
:1002900083B7806183BFF090810010928500109237
:1002A0008400109283001982DDCF1123D9F2812FAF
:1002B00023DF3A9A71BEC092800083B7806183BF0A
:1002C00011C0802F6F2DA501F4DE80918300813055
:1002D00059F4D1BED092800083B7806183BF399832
:1002E000F0928100E982BECF112361F0812F04DFFB
:1002F00039989092830061BED092800083B780616C
:1003000083BFE9829091810080918200981709F45F
:10031000A9CFA3DEA7CF802F6F2DA501CADEA2CF64
:100320009982A0CF991B79E004C0991F961708F015
:10033000961B881F7A95C9F780950895F894FFCF8A
:10034000C832196496C8646463003C1E0A05102014
:100350000102040506077E0CB69ECCDAFA0EFEDE1C
:00000001FF
