:1000000010C02AC029C028C09CC0D3C025C024C0AD
:1000100023C022C021C020C01FC01EC01DC01CC0E4
:100020001BC011241FBECFE5D2E0DEBFCDBF10E064
:10003000A0E6B0E0E6E4F3E002C005900D92A0383F
:10004000B107D9F710E0A0E8B0E001C01D92A638D2
:10005000B107E1F7C7D075C1D3CF809181006AE0C5
:1000600064D1A6E7B0E0FD01E80FF11D808188BBF7
:10007000809181005AD1A90FB11D8C9182BB089546
:10008000823061F0833018F4813081F405C084300F
:1000900039F0883059F408C08CE303C08EE101C008
:1000A0008AE08093810003C085E0FBCF8111D5DF1A
:1000B0000895CF93DF93EA018032D9F439983A98C2
:1000C00044E050E0E1E0F0E025B3CF01042E02C0AF
:1000D000880F991F0A94E2F78095822385BB4F5FB2
:1000E0005F4F4830510581F760938100B6DF81E0B2
:1000F0008883DF91CF910895FB01823061F08330D6
:1001000018F4813071F405C0843039F0883049F436
:1001100006C0AC9A08C0AD9A06C0AE9A04C0AF9AA9
:1001200002C0882369F081E08093830089E181BF68
:1001300084E68093800083B7806183BF82E0808300
:1001400008951F920F920FB60F9211248F939F93D1
:1001500080918300813031F1809181008823F9F012
:1001600080918400909185008336910571F41092FE
:10017000850010928400809181008093820080919C
:1001800081008150809381000DC080918400909106
:1001900085000196909385008093840003C081E0E0
:1001A000809383009F918F910F900FBE0F901F90AF
:1001B00018951F920F920FB60F9211248F93809172
:1001C0008000882331F080918000815080938000EE
:1001D00003C083B78F7E83BF8F910F900FBE0F90A8
:1001E0001F9018957F928F929F92AF92BF92CF925D
:1001F000DF92EF92FF920F931F93DF93CF930F92B3
:10020000CDB7DEB71ABA8FEF8BBB87BB18BA80EFBA
:1002100084BB8FE085BB9EEF91BB81E088BB96B924
:1002200087B988E083BF83B7826083BF12BE89E04D
:100230008EBD1DBC1CBC15BC14BC87E28BBD80E10F
:100240008ABD19BC18BC80E689BF789491E0998377
:100250008CE38093810090938300FFDE5CE3F52EB6
:100260006E010894C11CD11C44E6A42E32E0B32ECA
:100270007724739426E9822E98ECE92E82E3982E57
:100280008981813031F0813040F1823009F04BC0FA
:1002900044C019B3109503B3812FF2DE103189F4F5
:1002A000399AE1BE9092800083B7806183BFF0905D
:1002B00081001092850010928400109283001982B0
:1002C000DFCF00950F70E1F23A9A81BEE092800094
:1002D00083B7806183BFB982D3CF89B313B38095CD
:1002E0006F2DA601E6DE80918300813051F4A1BE1E
:1002F000A092800083B7806183BF3998F09281001B
:10030000B98290918100809182009813A6DE1095A9
:10031000812F8F70B601F0DEB3CF89B380956F2D3A
:10032000A601C7DEADCF7982ABCF991B79E004C0BF
:10033000991F961708F0961B881F7A95C9F7809524
:060340000895F894FFCFC0
:10034600C832196496C8646463003C1E0A0510200E
:100356000102040506077E0CB69ECCDAFA0EFEDE16
:00000001FF
